:020000040800F2
:10000000005000200D450008891C00088B1C0008CA
:100010008D1C00088F1C0008911C000800000000C7
:10002000000000000000000000000000931C000819
:10003000951C000800000000971C00085D230008C4
:100040005945000859450008594500085945000818
:100050005945000859450008594500085945000808
:1000600059450008594500085945000859450008F8
:1000700059450008594500085945000859450008E8
:1000800059450008594500085945000859450008D8
:1000900059450008594500085945000859450008C8
:1000A00059450008594500085945000859450008B8
:1000B00059450008594500085945000859450008A8
:1000C0005945000859450008594500085945000898
:1000D00059450008B9370008CD370008E137000856
:1000E0005945000859450008594500085945000878
:1000F0005945000859450008594500085945000868
:100100005945000859450008594500085945000857
:100110005945000859450008594500085945000847
:100120005945000859450008594500085945000837
:100130000348044B834202D0034B03B11847704776
:100140005800002058000020000000000548064B21
:100150001B1AD90F01EBA301491002D0034B03B1C5
:100160001847704758000020580000200000000089
:1001700010B5064C237843B9FFF7DAFF044B13B1EF
:100180000448AFF300800123237010BD5800002005
:10019000000000005C45000808B5044B1BB1044991
:1001A0000448AFF30080BDE80840CFE7000000003E
:1001B0005C0000205C45000808B410B5002A044625
:1001C0009DB034DB4FF4027C4FF00003ADF814C057
:1001D0001B934FF6FF7C0291069120AB15D0013A9C
:1001E0000492079202A91F9A0193ADF816C000F07D
:1001F000C7F9421C01DA8B2323600022029B1A708C
:100200001DB0BDE8104001B070470492079202A9EA
:100210001F9A0193ADF816C000F0B2F9431C01DA41
:100220008B2323601DB0BDE8104001B070478B23C5
:100230004FF0FF302360F5E70CB410B5204B0029D8
:100240001C689CB036DB4FF000034FF402721B9326
:100250004FF6FF7C02900690ADF814201FAB16D02D
:1002600001391E9A04910791204602A90193ADF825
:1002700016C000F085F9421C01DA8B2323600022AE
:10028000029B1A701CB0BDE8104002B07047049188
:10029000079120461E9A02A90193ADF816C000F0FE
:1002A0006FF9431C01DA8B2323601CB0BDE81040BA
:1002B00002B070478B234FF0FF302360F5E700BF9B
:1002C00000000020844641EA000313F0030349D1F3
:1002D000403A23D30B6803604B6843608B688360AC
:1002E000CB68C3600B6903614B6943618B698361B0
:1002F000CB69C3610B6A03624B6A43628B6A836298
:10030000CB6AC3620B6B03634B6B43638B6B83637F
:10031000CB6BC36340304031403ADBD230320BD339
:100320000B6803604B6843608B688360CB68C36075
:1003300010301031103AF3D20C3205D351F8043B8F
:1003400040F8043B043AF9D2043208D0D2071CBF6B
:1003500011F8013B00F8013B01D30B880380604694
:10036000704700BF082A13D38B07B1D010F00303E6
:10037000AED0C3F10403D21ADB071CBF11F8013B56
:1003800000F8013BA4D331F8023B20F8023B9FE781
:10039000043AD9D3013A11F8013B00F8013BF9D2F4
:1003A0000B7803704B7843708B788370604670478E
:1003B0002DE9F0471D468F680C46AF4216460B6884
:1003C00036D8B1F90CC01CF4906F0ED13D461846DA
:1003D00031462A4600F0EAF90020A368DF1B2368B3
:1003E000A7602B442360BDE8F0874A69096902EBE6
:1003F00042025F1A02EBD2726B1C52103B449342D2
:1004000092BF914699461A461CF4806F804611D0DF
:10041000114600F089FA824600B33A462169FFF797
:1004200051FFA38923F4906343F08003A38105E087
:100430002F46CCE700F0A4FB824658B10AEB070335
:10044000A9EB0707A760C4F810A02F46C4F81490C2
:100450002360BCE74046216900F0E6FA0C22A3893C
:100460004FF0FF3043F04003C8F80020A381BAE703
:100470002DE9F04F936883B092460190002B77D01E
:100480004FF0000B17680C465D468B680A6848E021
:10049000B4F90CC01CF4906F2FD0D4E90403A2EB84
:1004A000000803EB430202EBD27208F10101521083
:1004B0002944914292BF914689460A461CF4806FB6
:1004C00039D01146019800F02FFA064600283DD099
:1004D00042462169FFF7F6FEA28922F4906242F0BB
:1004E0008002A28106EB0800A9EB08022661A8465B
:1004F0002E46A2602060C4F814903246594600F09F
:1005000055F9DAF80810A3682268A3EB080332440F
:10051000491BA3602260CAF8081049B3D7E900B5A7
:10052000083798461046002DF8D09D421E46AFD29F
:10053000A8462E46E1E70146019800F021FB064659
:100540000028CFD10198216900F06EFA0C21A3890F
:10055000019D43F0400329600022A3814FF0FF304A
:100560000023CAF80820CAF8043003B0BDE8F08FB1
:1005700000200023CAF8043003B0BDE8F08F00BFAC
:100580002DE9F0471C468B890E461D06074692460C
:100590009CB003D50B69002B00F0F080002343F2E0
:1005A000200209939AF80030039401257A4CADF8A3
:1005B0002920002B72D0D04603E018F8013F002B11
:1005C00073D0252BF9D1B8EB0A0971D198F8002026
:1005D000002A63D000234FF0FF3208F10108CDE973
:1005E0000523049307938DF853301A9305E0C8460A
:1005F000001B05FA00F018430490C146052219F8C3
:10060000011B204600F020FBCA46049B0028EED1C7
:10061000D80644BF20228DF85320190748BF2B224B
:1006200098F8001048BF8DF853202A294ED1039A1C
:1006300011680432002903927CDB079198F80110BD
:100640002E295BD00322554800F0FEFA40B140222B
:100650005249049B401A824013430AF1010A049351
:100660001AF8011B06224E488DF8281000F0ECFA0B
:10067000002865D04B48002855D003A90091324688
:100680003846494B04A9AFF30080421C06D0099BB1
:10069000034409939AF80030002B8CD1B3895B0690
:1006A00077D409981CB0BDE8F087B8EB0A09F5D0FB
:1006B0004B46524631463846FFF77AFE0130EDD0C0
:1006C000099B98F800204B44099381E7A1F130027F
:1006D000092A88BFC246B3D8079B01E009F1010986
:1006E00099F8001003EB830302EB4303A1F13002FE
:1006F000092AF3D92E29CA460793A3D19AF80110E3
:100700002A2926D1039B0AF102001A680433002A21
:100710000393B8BF4FF0FF339AF802100592824658
:10072000B8BF05938EE7039B073323F00703083315
:100730000393ACE7494243F00203079104937DE73A
:1007400003A9009132463846174B04A900F04EFB2E
:100750009BE70023A1F13002092A0AF1010A05935F
:100760003FF670AF1AF8011F03EB830302EB43035C
:10077000A1F13002092AF5D9059363E7402100F081
:10078000D3F83060306110B14023736106E70C2369
:100790003B604FF0FF3085E72C49000834490008E2
:1007A0003849000800000000B10300088842F0B595
:1007B00014D98B18834211D9032A00EB020166D8A1
:1007C00002F1FF3C4AB16FEA0C0C0A469C4413F854
:1007D000011D634502F8011DF9D1F0BD032A0FD8B0
:1007E000034602F1FF3C002AF7D00CF1010C013B5B
:1007F0008C4411F8012B614503F8012FF9D1F0BDAC
:1008000041EA00039B073ED10F2A64D901F110048D
:10081000A446A2F11003203123F00F03194400F184
:10082000100E5CF8105C0CF1100C4EF8105C5CF8CB
:100830001C5C0EF1100E4EF81C5C5CF8185C4EF857
:10084000185C5CF8145C8C454EF8145CE9D1E11836
:1008500012F00C0F034402F00F0E03F1100338D016
:100860008C462EF00305043D1A1F5E195CF8044BFC
:1008700042F8044FB242F9D10431043329442B44E5
:100880000EF00302ADE7034602F1FF3CADE741EA9B
:100890000304A4071F4602D002F1FF3C93E78C46F5
:1008A000A2F1040E2EF003068E1B4FEA9E0E644644
:1008B00053F8045DB4424CF8045DF8D1CEEB8E736E
:1008C00001EB830107EB83073B1F043902F00302AE
:1008D00076E7724685E703469646C1E770B5114E46
:1008E000054633680C46BBB12146284600F0CCFBD8
:1008F000431C01460CD0C41C24F00304A04205D0C4
:100900002846611A00F0C0FB013001D0204670BDBE
:100910004FF0FF34204670BD194600F0B5FB306043
:10092000E2E700BF740000202DE9F843CD1C25F05C
:10093000030508350C2D38BF0C25002D064618DBA5
:10094000A94216D8DFF8DC8000F07AF9D8F8042044
:10095000A2B1144603E0636822467BB11C462368BB
:100960005B1BF8D40B2B1FD8A242636854D0536092
:100970000CE00C2333600020BDE8F88329463046A4
:10098000FFF7ACFF431C044619D00560304600F069
:1009900059F904F10B00231D20F00700C21A1CBFF7
:1009A0001B1AA350BDE8F8836119A242256014BF49
:1009B0005160C8F80410635163684B60E6E7D8F8EB
:1009C00004701FB33C467F68002FFBD12368394673
:1009D000304604EB030900F057FB814516D123682C
:1009E0003046ED1A2946FFF779FF01300ED0236813
:1009F000D8F804202B442360536883B1A34203D06A
:100A00001A465B689C42FBD10023B0E70C233046BA
:100A1000336000F017F9AEE7C8F80430B6E7C8F85D
:100A20000470B3E774000020002950D038B551F8A5
:100A3000043C0C1F002BB8BFE418054600F000F979
:100A4000274A13682BB1A3420CD92168601883424E
:100A50002CD0284663601460BDE8384000F0F2B83E
:100A6000A3420FD81A465B68002BF9D111685018C1
:100A7000844217D02CD3636054602846BDE83840C8
:100A800000F0E0B811685018A04214D020D82168B6
:100A900060188342EFD118685B680844C4E900031A
:100AA0005460EAE723680B441360E6E718685B6864
:100AB00008442060CDE7206801445018834211604B
:100AC000DBD1D3E900040144C2E90014D5E7704743
:100AD0000C2328462B60BDE8384000F0B3B800BFB7
:100AE00078000020830730B546D08446841805E09E
:100AF000634603F8011B9D0703D09C46A445F7D12C
:100B000030BD013A0244A2EB0C02032A29D9CCB22F
:100B100004EB04240F2A04EB04442FD9A2F1100C97
:100B20002CF00F0C03F11005AC44C3E90044C3E9F9
:100B3000024410336345F8D112F00C0F02F00F0E8F
:100B400018D01A462EF0030C9C44AEF1040542F86E
:100B5000044B6245FBD125F0030404330EF003027D
:100B60002344002ACCD0C9B21A4403F8011B934293
:100B7000FBD130BD7246F4E70346C6E79646E0E790
:100B80002DE9F041144641B30AB306460D4600F084
:100B900073FA8442074602D8B4EB500F13D82146AB
:100BA0003046FFF7C1FE804650B1BC42224629467E
:100BB00028BF3A46FFF786FB29463046FFF734FF49
:100BC0004046BDE8F081A8464046BDE8F081A04619
:100BD000FFF72AFF4046BDE8F0811146BDE8F0412D
:100BE000FFF7A2BE20F0030110F00300C0F10000E7
:100BF00051F8043B00F1040C4FEACC0C6FF00002FA
:100C00001CBF22FA0CF213434FF0010C4CEA0C2CDF
:100C10004CEA0C4CA3EB0C0222EA030212EACC12BF
:100C200004BF51F8043B0430F4D0C2F1000102EAE1
:100C30000102B2FA82F2C2F11F0200EBD200704749
:100C4000704700BF704700BF30B586468007CCB202
:100C500015D0F4460EEB020507E0634613F8011BBE
:100C6000A14206D0990705D09C4665456046F4D15F
:100C7000002030BD013A72449E46A2EB0C02032ACA
:100C80000CD8002AF4D07346724401E09A42EFD0A7
:100C9000184613F8011BA142F8D130BD714604EB90
:100CA000042505EB05458E4651F8043B6B40A3F146
:100CB000013020EA030313F0803FE4D1043A032A11
:100CC000F1D88E46DDE700BF2DE9F84F92461F466A
:100CD0000A698B680C469A42B8BF1A46CAF80020C7
:100CE00091F843300646DDF8289013B10132CAF876
:100CF0000020226891065CD5DAF800300233CAF889
:100D00000030226812F0060F11461DD1E1689942A9
:100D1000D8BF114618DD4FF0000804F1190B05E0AB
:100D2000E568DAF80030ED1A45450CDD01235A4636
:100D300039463046C847013008F10108F0D14FF07C
:100D4000FF30BDE8F88F216894F84330003B18BFAE
:100D500001238A060AD53021E21882F843101A4688
:100D600094F845102244023382F844103946304644
:100D700004F14302C8470130E1D02368A26803F0C0
:100D80000603042B21691BD08A4224DD4FF00008A2
:100D9000521A904400251A3401E045451BDA01231C
:100DA000224639463046C847013005F10105F4D1E5
:100DB000C5E712F0060F11D0003B18BF0123D5E79D
:100DC000DAF80000E3688A42A3EB000323EAE37841
:100DD000DEDC002BDEDC0020BDE8F88FE168DAF80D
:100DE00000309942D8BF114695DCADE72DE9F047B8
:100DF00017460A7E84B00C46064698460C9D01F1C3
:100E0000430C002A35D0A2F15803D9B2202969D861
:100E1000202B67D8DFE813F0E50066006600660067
:100E20006600660066006600660066006600AB004D
:100E3000700066006600660066007000660066006E
:100E40006600660021008200C50066006600B500ED
:100E50006600820066006600EB002B682268181DA1
:100E60006169286010061B6802D4520600F1DF8019
:100E700019600023E14623613B4621463046CDF808
:100E8000008003AAFFF720FF013020D04A463946F0
:100E900030462369C047013019D02368E0689B07BA
:100EA000DDF80C9018D5484516DD002504F1190A27
:100EB00004E0E068A0EB0903AB420DDD01235246DC
:100EC00039463046C047013005F10105F1D14FF0F8
:100ED000FF3004B0BDE8F0874845B8BF484604B0CD
:100EE000BDE8F087012084F8422004F14209002384
:100EF000206184F84330BFE72A682368111D180673
:100F0000296002D4590600F1948012681146002A23
:100F1000C0F293804FF00A0E554813E020682B680A
:100F200010F0800F53F8041B02D1400648BF89B26D
:100F30006F2A2B6000F090804FF00A0E4C4800237F
:100F400084F843306268002AA26052DB236823F0F1
:100F50000403236000294CD1002A40F08380E1463D
:100F6000BEF1080F56D0ACEB0903236184E72A6871
:100F70000120116804322A6004F1420984F8421009
:100F8000B5E72B6800211A1D2A60D3F8009062682B
:100F90004846FFF759FE002862D0A0EB09006060C8
:100FA000A5E7236843F0200323607822314884F8C2
:100FB00045202A6813F0800F52F8041B03D113F068
:100FC000400F18BF89B22A60DA0744BF43F02003FC
:100FD000236019B9236823F0200323604FF0100E1B
:100FE000ADE75823224884F845302368E1E72368B9
:100FF000DBE77546E146B1FBF5F30A4605FB131A3C
:10100000194610F80A30AA4209F8013DF3D2BEF1A0
:10101000080FA8D12368DD07A5D5626823699A4225
:10102000A1DC302309F1FF3989F800309BE71980F2
:101030001FE7B2F900100A4669E72D2284F8432021
:101040006268002AA26002DB23F0040323600A2501
:101050000748AE464942CDE74FF0080E04486EE718
:10106000606844E7037804F1420984F8423077E786
:10107000404900085449000851F8043C181F002B4F
:10108000BCBF0B58C0187047002238B5064D044647
:1010900008462A6000F00AF8431C00D038BD2B68CF
:1010A000002BFBD0236038BDB8010020044A05495D
:1010B0001368002B08BF0B46184410601846704791
:1010C000BC010020A80D002070B54FF0FF0C4CF4BF
:1010D000E06C1CEA11541DBF1CEA135594EA0C0F76
:1010E00095EA0C0F00F0DEF82C4481EA030621EAB1
:1010F0004C5123EA4C5350EA013518BF52EA0335EC
:1011000041F4801143F4801338D0A0FB02CE4FF09D
:101110000005E1FB02E506F00042E0FB03E54FF0CD
:101120000006E1FB03569CF0000F18BF4EF0010EC5
:10113000A4F1FF04B6F5007F64F5407404D25FEAC1
:101140004E0E6D4146EB060642EAC62141EA555174
:101150004FEAC52040EA5E504FEACE2EB4F1FD0CB6
:1011600088BFBCF5E06F1ED8BEF1004F08BF5FEA34
:10117000500E50F1000041EB045170BD06F00046E6
:1011800046EA010140EA020081EA0301B4EB5C0493
:10119000C2BFD4EB0C0541EA045170BD41F480118B
:1011A0004FF0000E013C00F3AB8014F1360FDEBFB0
:1011B000002001F0004170BDC4F10004203C35DA8C
:1011C0000C341BDC04F11404C4F1200500FA05F30F
:1011D00020FA04F001FA05F240EA020001F00042B0
:1011E00021F0004110EBD37021FA04F642EB060126
:1011F0005EEA430E08BF20EAD37070BDC4F10C0450
:10120000C4F1200500FA04F320FA05F001FA04F213
:1012100040EA020001F0004110EBD37041F10001FF
:101220005EEA430E08BF20EAD37070BDC4F120050A
:1012300000FA05F24EEA020E20FA04F301FA05F272
:1012400043EA020321FA04F001F0004121FA04F21A
:1012500020EA020000EBD3705EEA430E08BF20EAEA
:10126000D37070BD94F0000F0FD101F00046400024
:1012700041EB010111F4801F08BF013CF7D041EAA6
:10128000060195F0000F18BF704703F000465200AA
:1012900043EB030313F4801F08BF013DF7D043EA7B
:1012A0000603704794EA0C0F0CEA135518BF95EA31
:1012B0000C0F0CD050EA410618BF52EA4306D1D1B8
:1012C00081EA030101F000414FF0000070BD50EAD7
:1012D000410606BF1046194652EA430619D094EA61
:1012E0000C0F02D150EA013613D195EA0C0F05D14B
:1012F00052EA03361CBF104619460AD181EA03019F
:1013000001F0004141F0FE4141F470014FF0000056
:1013100070BD41F0FE4141F4780170BD4FF0FF0C0B
:101320001CEAD0521EBF1CEAD15392EA0C0F93EA7A
:101330000C0F6FD01A4480EA010C400218BF5FEA1C
:1013400041211ED04FF0006343EA501043EA51118F
:10135000A0FB01310CF00040B1F5000F3EBF490089
:1013600041EAD3715B0040EA010062F17F02FD2A8D
:101370001DD8B3F1004F40EBC25008BF20F0010070
:10138000704790F0000F0CF0004C08BF49024CEA87
:10139000502040EA51207F3AC2BFD2F1FF0340EA19
:1013A000C250704740F400004FF00003013A5DDC8A
:1013B00012F1190FDCBF00F000407047C2F10002CB
:1013C000410021FA02F1C2F1200200FA02FC5FEAB8
:1013D000310040F1000053EA4C0308BF20EADC7002
:1013E000704792F0000F00F0004C02BF400010F474
:1013F000000F013AF9D040EA0C0093F0000F01F021
:10140000004C02BF490011F4000F013BF9D041EA42
:101410000C018FE70CEAD15392EA0C0F18BF93EA44
:101420000C0F0AD030F0004C18BF31F0004CD8D16E
:1014300080EA010000F00040704790F0000F17BFF5
:1014400090F0004F084691F0000F91F0004F14D03B
:1014500092EA0C0F01D142020FD193EA0C0F03D193
:101460004B0218BF084608D180EA010000F0004096
:1014700040F0FE4040F40000704740F0FE4040F471
:101480004000704781F0004102E000BF83F000435C
:1014900030B54FEA41044FEA430594EA050F08BF0F
:1014A00090EA020F1FBF54EA000C55EA020C7FEAD3
:1014B000645C7FEA655C00F0E2804FEA5454D4EB50
:1014C0005555B8BF6D420CDD2C4480EA020281EA1A
:1014D000030382EA000083EA010180EA020281EA52
:1014E0000303362D88BF30BD11F0004F4FEA0131A4
:1014F0004FF4801C4CEA113102D0404261EB4101B3
:1015000013F0004F4FEA03334CEA133302D0524238
:1015100063EB430394EA050F00F0A780A4F10104F4
:10152000D5F1200E0DDB02FA0EFC22FA05F280182E
:1015300041F1000103FA0EF2801843FA05F3594114
:101540000EE0A5F120050EF1200E012A03FA0EFC93
:1015500028BF4CF0020C43FA05F3C01851EBE371BD
:1015600001F0004507D54FF0000EDCF1000C7EEBDA
:1015700000006EEB0101B1F5801F1BD3B1F5001F18
:101580000CD349085FEA30004FEA3C0C04F1010437
:101590004FEA445212F5800F80F09A80BCF1004F60
:1015A00008BF5FEA500C50F1000041EB045141EAE2
:1015B000050130BD5FEA4C0C404141EB0101013CAB
:1015C00028BFB1F5801FE9D291F0000F04BF01469A
:1015D0000020B1FA81F308BF2033A3F10B03B3F16C
:1015E00020020CDA0C3208DD02F1140CC2F10C02FC
:1015F00001FA0CF021FA02F10CE002F11402D8BF5A
:10160000C2F1200C01FA02F120FA0CFCDCBF41EA25
:101610000C019040E41AA2BF01EB0451294330BDF4
:101620006FEA04041F3C1CDA0C340EDC04F11404D1
:10163000C4F1200220FA04F001FA02F340EA0300A8
:1016400021FA04F345EA030130BDC4F10C04C4F1EE
:10165000200220FA02F001FA04F340EA03002946CE
:1016600030BD21FA04F0294630BD94F0000F83F418
:10167000801306BF81F480110134013D4EE77FEAFB
:10168000645C18BF7FEA655C29D094EA050F08BF47
:1016900090EA020F05D054EA000C04BF1946104628
:1016A00030BD91EA030F1EBF0021002030BD5FEA6C
:1016B000545C05D14000494128BF41F0004130BD94
:1016C00014F580043CBF01F5801130BD01F00045E8
:1016D00045F0FE4141F470014FF0000030BD7FEA5B
:1016E000645C1ABF194610467FEA655C1CBF0B4656
:1016F000024650EA013406BF52EA033591EA030F6D
:1017000041F4002130BD00BF90F0000F04BF002164
:10171000704730B54FF4806404F132044FF0000597
:101720004FF0000150E700BF90F0000F04BF002110
:10173000704730B54FF4806404F1320410F0004576
:1017400048BF40424FF000013EE700BF42004FEA71
:10175000E2014FEA31014FEA02701FBF12F07F43EE
:1017600093F07F4F81F06051704732F07F4208BFA5
:10177000704793F07F4F04BF41F40021704730B5AC
:101780004FF4607401F0004521F000411CE700BFF8
:1017900050EA010208BF704730B54FF000050AE07B
:1017A00050EA010208BF704730B511F0004502D57C
:1017B000404261EB41014FF4806404F132045FEA7E
:1017C000915C3FF4D8AE4FF003025FEADC0C18BF27
:1017D00003325FEADC0C18BF033202EBDC02C2F119
:1017E000200300FA03FC20FA02F001FA03FE40EAAB
:1017F0000E0021FA02F11444BDE600BF4A0011D2E6
:1018000012F5001211D20DD56FF47873B3EB62525A
:101810000ED44FEAC12343F0004343EA505323FA66
:1018200002F070474FF00000704750EA013002D1DB
:101830004FF0FF3070474FF0000070474FEA410211
:10184000B2F1E04324BFB3F5001CDCF1FE5C0DD91E
:1018500001F0004C4FEAC0024CEA5070B2F1004F68
:1018600040EB830008BF20F00100704711F0804F6B
:1018700021D113F13872BCBF01F00040704741F430
:1018800080114FEA5252C2F11802C2F1200C10FA34
:101890000CF320FA02F018BF40F001004FEAC12318
:1018A0004FEAD32303FA0CFC40EA0C0023FA02F3BC
:1018B0004FEA4303CCE77FEA625307D150EA013392
:1018C0001EBF4FF0FE4040F44000704701F0004062
:1018D00040F0FE4040F40000704700BF80F0004040
:1018E00002E000BF81F0004142001FBF5FEA4103F8
:1018F00092EA030F7FEA226C7FEA236C6AD04FEAF8
:101900001262D2EB1363C1BFD2184140484041403C
:10191000B8BF5B42192B88BF704710F0004F40F4EE
:10192000000020F07F4018BF404211F0004F41F40A
:10193000000121F07F4118BF494292EA030F3FD0D6
:10194000A2F1010241FA03FC10EB0C00C3F12003E9
:1019500001FA03F100F0004302D5494260EB400078
:10196000B0F5000F13D3B0F1807F06D340084FEAE3
:10197000310102F10102FE2A51D2B1F1004F40EBD8
:10198000C25008BF20F0010040EA03007047490040
:1019900040EB0000013A28BFB0F5000FEDD2B0FADD
:1019A00080FCACF1080CB2EB0C0200FA0CF0AABF00
:1019B00000EBC25052421843BCBFD040184370479E
:1019C00092F0000F81F4000106BF80F400000132A4
:1019D000013BB5E74FEA41037FEA226C18BF7FEA7B
:1019E000236C21D092EA030F04D092F0000F08BFBD
:1019F0000846704790EA010F1CBF0020704712F0A4
:101A00007F4F04D1400028BF40F00040704712F1E2
:101A100000723CBF00F50000704700F0004343F047
:101A2000FE4040F4000070477FEA226216BF08467D
:101A30007FEA23630146420206BF5FEA412390EA40
:101A4000010F40F4800070474FF0000304E000BF36
:101A500010F0004348BF40425FEA000C08BF7047E7
:101A600043F0964301464FF000001CE050EA0102AB
:101A700008BF70474FF000030AE000BF50EA0102C0
:101A800008BF704711F0004302D5404261EB4101AD
:101A90005FEA010C02BF84460146002043F0B643D2
:101AA00008BFA3F18053A3F50003BCFA8CF2083AF7
:101AB000A3EBC25310DB01FA02FC634400FA02FC00
:101AC000C2F12002BCF1004F20FA02F243EB020007
:101AD00008BF20F00100704702F1200201FA02FC69
:101AE000C2F1200250EA4C0021FA02F243EB02005C
:101AF00008BF20EADC7070474FEA4002B2F1FE4FA7
:101B00000FD34FF09E03B3EB12620DD94FEA0023BF
:101B100043F0004310F0004F23FA02F018BF404298
:101B200070474FF00000704712F1610F01D142027F
:101B300005D110F0004008BF6FF0004070474FF033
:101B40000000704742000ED2B2F1FE4F0BD34FF0AF
:101B50009E03B3EB126209D44FEA002343F0004323
:101B600023FA02F070474FF00000704712F1610F46
:101B700001D1420202D14FF0FF3070474FF0000018
:101B8000704700BF10B504460E21074802F07EFCE6
:101B90002046FFF727F881B2204602F077FC0221A9
:101BA000024802F073FC10BDCC450008DC4500087B
:101BB00008B500F0DBFB01F0ABFC00F00FFC02F01D
:101BC000C9FB01F089FD02F0E3FB00F047FB70B1B7
:101BD0001421114802F05AFC002000F033FC0120CF
:101BE00000F030FC4FF4FA6000F0E8FBF0E701F0A1
:101BF00059F90A4801F008FB00F0AEFC4FF4FA7006
:101C000000F0DCFB0021084600F004FC002101206C
:101C100000F000FC08BD00BFE0450008851B00087F
:101C200008B5FFF7C5FF01F05DF960B91221124850
:101C300002F02CFC0021114801F0F2F903E04FF40E
:101C4000FA7000F0BBFB00F097FC01F0E9FA01F03C
:101C5000E1FA0228F3D01721094802F017FC01F03D
:101C600041F90028EBD10021044801F0D9F91421F1
:101C7000044802F00BFCE2E7F84500080C460008B7
:101C8000304600084C4600087047FEE7FEE7FEE7D6
:101C9000FEE770477047704782B0002301930093BE
:101CA0002C4A136843F4803313602A4B1B6803F4F7
:101CB00000330093019B01330193009B1BB9019BEF
:101CC000B3F5A06FF1D1234B1B6813F4003F06D08E
:101CD00001230093009B012B04D002B07047002326
:101CE0000093F7E71C4B1A6842F010021A601A685A
:101CF00022F007021A601A6842F002021A60A3F585
:101D000080535A685A605A685A605A6842F480622E
:101D10005A605A6822F47C125A605A6842F4E812F7
:101D20005A601A6842F080721A600A4B1B6813F0FE
:101D3000007FFAD0074B5A6822F003025A605A68B3
:101D400042F002025A60034B5B6803F00C03082B5D
:101D5000F9D1C2E7001002400020024008B5FFF7A9
:101D60009BFF08BD08B5104B1A6842F001021A60CB
:101D700059680E4A0A405A601A6822F0847222F4A6
:101D800080321A601A6822F480221A605A6822F49B
:101D9000FE025A604FF41F029A60FFF7DFFF044B08
:101DA0004FF000629A6008BD001002400000FFF88A
:101DB00000ED00E000B5FF2296460AE010F8013B76
:101DC0005340094AD25C82EA0E02084911F803E046
:101DD00061464B1E1FFA83FC0029EFD102EB0E2057
:101DE00080B25DF804FB00BF684A0008684900083B
:101DF000A0F14103DBB2192B00D970472030C0B2EB
:101E0000FBE72DE9F041064638B10F46F9B1084627
:101E1000FEF7E8FE8046A0B93046BDE8F081013407
:101E200044450BD2305D50B1FFF7E2FF0546385D07
:101E3000FFF7DEFF8542F2D0002000E0012040B92C
:101E4000013633780BB10024EAE70020E5E70846C5
:101E5000E3E73046E1E70000F0B5C1B007460E46C3
:101E600000251AE01DF8031003F580726A4402F899
:101E7000801C01339BB2A342F4D304F580730DEBB5
:101E80000304002304F8803C394620A8FFF7B9FF7B
:101E9000B8B90A2000F092FA0A35B54213D20C4BB9
:101EA00093F88A31002BF4D08021684601F0E0FBE2
:101EB000044601F007FC631E9BB27E2BE9D8002389
:101EC000D9E7012000E0002080F0010041B0F0BD22
:101ED000800A0020002800F090802DE9F047A0B093
:101EE0000F4690460646012940F28980002404707E
:101EF000A146254656E08021684601F0B9FB82469E
:101F000001F0E0FBBAF1000F53D0002309E00134E7
:101F1000A4B203F180026A4412F8802C7254013397
:101F20009BB2534503D221467A1E9442EFD300233D
:101F3000335534493046FFF764FF38B932493046EB
:101F4000FFF75FFF10B94FF0010932E04FF00109D0
:101F500089F0010020B0BDE8F0872C4BB3F8881160
:101F600089B2B3F886319BB2C91A89B201F5807182
:101F700089B230E00134A4B203F180026A4412F85D
:101F8000802C725401339BB2634503D221467A1EE2
:101F90009442EFD3002333554FF00109322000F073
:101FA0000DFA32354545D3D2184B93F88A31002BC0
:101FB000A1D1164BB3F8882192B2B3F886319BB207
:101FC0009A42CAD3114BB3F8881189B2B3F886315B
:101FD0009BB2C91A89B20029E0D00C4B93F88A3120
:101FE000002BDBD1802928BF8021684601F040FB0F
:101FF00084460028D2D00023C6E701207047012084
:10200000A8E700BF6446000868460008800A002070
:1020100040B108B50449FFF7F4FE08B1002008BD3F
:102020000120FCE70120704764460008F0B587B046
:1020300004460121042002F0B9F801214FF40030D8
:1020400002F0C2F80427ADF8147003238DF816309F
:1020500018238DF8173005AE1F4D3146284601F084
:10206000E7FF0823ADF814308DF817703146284685
:1020700001F0DEFF01940025ADF80850ADF80A50DC
:10208000ADF80C50ADF810500C23ADF80E30134ED7
:102090000DEB0701304602F0A5F826238DF800303D
:1020A00001248DF801408DF802508DF803406846F8
:1020B00001F08EFF224640F22551304602F002F92F
:1020C000224640F22441304602F0FCF821463046D8
:1020D00002F0EAF807B0F0BD0008014000440040FB
:1020E00010B5094C4021204602F003F84FF49670D9
:1020F00000F064F94021204601F0F9FF4FF4FA6046
:1021000000F05CF910BD00BF0008014030B583B09D
:102110000121042002F04AF86025ADF804500323A1
:102120008DF8063010238DF80730064C01A92046A3
:1021300001F07EFF2946204601F0D9FFFFF7D0FFCE
:1021400003B030BD0008014010B5002401E00134A7
:10215000E4B2022C32D801F0B5FA194AB2F888314B
:102160009BB2A2F886314021164802F0C6F800283A
:10217000F9D04FF4FA7000F021F9134801F056FA43
:102180004021104802F0B9F80028F9D04FF49671B8
:102190000E48FFF761FE0028D9D10C4801F046FA3D
:1021A0004021084802F0A9F80028F9D040F6B831DB
:1021B0000748FFF751FE0028C9D100E0012010BDFB
:1021C000800A002000440040704600087446000861
:1021D0006446000830B3F8B50F4616461D4604465F
:1021E00003780BB90120F8BD01F06CFA0F4AB2F880
:1021F00088319BB2A2F88631204601F017FA0C48CC
:1022000001F014FA40210B4802F077F80028F9D0C9
:1022100057B10EB90020E6E72A4631463846FFF7A7
:1022200059FEE0E7012070470020DCE7800A00202B
:10223000DC4500080044004000B591B04FF4FA635B
:1022400040226946FFF7C6FF18B1012011B05DF8C2
:1022500004FB6846FFF7DCFEF8E7000030B5A3B0EA
:10226000FFF754FF4FF4E130FFF7E0FEFFF76CFF9C
:10227000002847D102AC4FF47A73402221462A4805
:10228000FFF7A8FF294801F085FA204601F082FAFD
:10229000274D284601F07EFA4FF47A7340222146FA
:1022A0002448FFF797FF244801F074FA204601F014
:1022B00071FA284601F06EFA2048FFF7BDFF40BBD7
:1022C000C82000F07BF812AC40F25B7300931C4B0B
:1022D0001C4A40212046FDF7AFFF2046FFF7ACFF28
:1022E0000446D8B9C82000F069F81748FFF7A4FFE2
:1022F000FFF7F6FE4FF4E130FFF798FE134801F0C8
:1023000049FA03E0124801F045FA0124204623B0BF
:1023100030BD104801F03EFA0124F7E70E4801F005
:1023200039FA0124F2E700BFA0460008A8460008D9
:10233000DC450008BC460008C4460008D446000836
:102340003047000840470008784600087C470008EE
:10235000804600081047000854470008024A1368E6
:1023600001331360704700BFC00100200F4B1B6892
:102370000F4AA2FB03239B09013B4FF0E02253616C
:102380000C4BF02183F82310002191610723136186
:10239000D2F8FC3D43F08073C2F8FC3D064B1A684E
:1023A00042F001021A605960704700BF50000020DF
:1023B000D34D621000ED00E0001000E0034B1A68FE
:1023C000024B1B689B1A8342FAD37047C00100205E
:1023D000014B1868704700BFC001002030B583B0C2
:1023E0000121042001F0E2FE0324ADF804408DF841
:1023F000064010238DF80730054D01A9284601F04D
:1024000017FE2146284601F074FE03B030BD00BF20
:102410000008014001280FD808B5084B33F81030E8
:10242000012904D01946064801F063FE08BD19468B
:10243000034801F05CFEF9E7704700BF684B0008F5
:1024400000080140012800D9704710B50A4B33F845
:1024500010402146094801F043FE38B9214600F1F9
:10246000804000F5843001F042FE10BD2146034853
:1024700001F03FFEF9E700BF684B0008000801408B
:1024800030B589B000240694079418B90124204679
:1024900009B030BD06AD8DF818008DF81910110A7D
:1024A0008DF81A108DF81B201A0A8DF81C208DF853
:1024B0001D3006212846FFF77DFC8DF81E00C0F375
:1024C00007208DF81F000821284601F09FFF0446D1
:1024D00008B10124DBE70F21174801F0D7FF23469D
:1024E0001EE003F120026A4412F8081C080903EBFD
:1024F0004302124D15F800C002F12000684400F8B4
:1025000020CC01F00F016D5C02F12101694401F85A
:10251000205C22326A44202102F8201C0133DBB205
:10252000072BDED91821684601F0B0FF02210448CC
:1025300001F0ACFFABE700BF904700088C4B0008F0
:10254000DC45000808B5212310220321FFF798FF7E
:1025500000B908BD0120FCE7044A00231370537042
:102560005360034A13601371704700BF24020020B8
:102570002C02002000000000F0B585B07C4B1B78D9
:10258000032B00F2AF83DFE813F004000B003400EC
:102590000F01774B00225A7001221A7005B0F0BD6E
:1025A0000020FFF74FFF724B5B78724AD45C01F05A
:1025B00033F8714AB2F888319BB2A2F886312046CE
:1025C000FFF7C0FF30B9FFF703FF694B58600222E5
:1025D0001A70E3E71121694801F058FF644A537803
:1025E0000133DBB25370042BD8D9134600225A7042
:1025F000D4E70020FFF726FF5F4B93F88A313BB109
:10260000FF215F4800F0DEFF064601F005F8CEB975
:10261000FFF7DEFE564B5B68C01AB0F5FA7FBDD3FC
:102620001421584801F032FF51494A780132564B83
:1026300083FB02035B1003EB8303D31A4B7001236C
:102640000B70ABE700254E4B9D55504B1E700F2174
:102650004F4801F01BFF25E0494AD25C100901F107
:10266000010C1FFA8CFC4B4F3C5C4B48445402F06D
:102670000F028C1CA4B2BA5C00F80C20033189B2A2
:102680002022025501339BB2B34206D205F120024B
:10269000934202D2CA1C602ADED93F4801F0F6FEFE
:1026A0002035ADB2B54202D22B460021ECE7022123
:1026B0003A4801F0EBFE2E4B5B782E4AD15C0023AA
:1026C00001E001339BB21A1DB24203D22C4AD25C04
:1026D0008A42F6D123B11846294AD25C8A4205D0F3
:1026E000442E10D9224B03221A7057E7F31A9EB2D8
:1026F000002305E0C118224A515CD15401339BB23A
:10270000B342F7D3ECE71621254801F0BFFE254A76
:10271000A2FB0613D908C3F3CF03A2FB0302D2081E
:1027200002EB8202A3EB420330338DF8043001EB5D
:102730008101A6EB410330338DF8053042238DF83B
:102740000630032101A801F0A1FE0221134801F087
:102750009DFE07494A7801320B4B83FB02035B1055
:1027600003EB8303D31A4B7001230B7016E700BFF2
:1027700024020020A04B0008100C0020A0470008F5
:10278000E4020020DC47000867666666E00200207D
:10279000B4470008784B0008C4010020DC4500085D
:1027A000C4470008CDCCCCCCD14B5C78D14B1A5D62
:1027B000C4EBC401D04B03EB81031A77CF4B1B79D9
:1027C000002B40F0F981CC4B03EB810301225A77B7
:1027D000CA4D6879AB7903EB0020FEF7A5FFC0A3D3
:1027E000D3E90023FEF770FCFFF728F8C4EBC4031D
:1027F000C14E06EB83063062687BAB7B43EA002068
:10280000FFF726F9BE49FEF789FD706295F837009B
:1028100095F8383003EB0020FFF71AF9B062687DB5
:10282000AB7D03EB0020FEF77FFFFFF707F8F062B8
:1028300095F84000FFF70CF9B249FEF76FFDFFF77E
:1028400081F986F8300095F8412095F842301B0454
:1028500003EB026395F8432003EB022395F8440051
:102860001844FEF751FFA0A3D3E90023FEF72CFC88
:10287000FEF7C4FF70630C21A34801F007FE04F1CA
:1028800030038DF8043001AD0121284601F0FEFD32
:1028900006219E4801F0FAFD337F19099C4A515CDC
:1028A0008DF8041003F00F03D35C8DF8053002217E
:1028B000284601F0EBFD0421964801F0E7FD737F07
:1028C00030338DF804300121284601F0DFFD03216B
:1028D000914801F0DBFD9149706AFEF71FFDFFF79B
:1028E0000BF905468E4B83FB0023C117D1EBA301E7
:1028F00040F07F8130238DF80F300B22C2F10C01A4
:10290000C9B201A8104401F0C1FD854A82FB05321D
:10291000EB17C3EBA20303EB8303A5EB4305092DE0
:1029200000D900252E238DF8043030358DF8055060
:10293000022101A801F0AAFD03217A4801F0A6FDB9
:10294000C4EBC4026C4B03EB82037749186AFEF7B1
:10295000E5FCFFF7D1F80546744B83FB0023C11754
:10296000D1EB631140F05C8130238DF80F300B22E6
:10297000C2F10C01C9B201A8104401F087FD6B4AF5
:1029800082FB0532EB17C3EB6213642202FB135583
:10299000632D00D900252E238DF80430644BA3FB52
:1029A0000523DB0803F130028DF8052003EB8303D8
:1029B000A5EB430530358DF80650032101A801F041
:1029C00065FD03215B4801F061FDC4EBC4024A4B85
:1029D00003EB82035449986AFEF7A0FCFFF78CF8DA
:1029E0000546524B83FB0023C117D1EB631140F026
:1029F0002E8130238DF80F300B22C2F10C01C9B2A9
:102A000001A8104401F042FD484A82FB0532EB1751
:102A1000C3EB6213642202FB1355632D00D900251A
:102A20002E238DF80430424BA3FB0523DB0803F172
:102A300030028DF8052003EB8303A5EB4305303509
:102A40008DF80650032101A801F020FD03213A482A
:102A500001F01CFDC4EBC402274B03EB82032F499A
:102A6000D86AFEF75BFCFFF747F805462C4B83FB63
:102A70000023C117D1EBA30140F0008130238DF872
:102A80000F300B22C2F10C01C9B201A8104401F0B1
:102A9000FDFC234A82FB0532EB17C3EBA20303EBD9
:102AA0008303A5EB4305092D00D900252E238DF8BE
:102AB000043030358DF80550022101A801F0E6FC04
:102AC00004211E4801F0E2FCC4EBC4020A4B03EBF4
:102AD000820393F83020002A40F0E78030E000BF06
:102AE0009A9999999999B93F2D431CEBE2361A3F6F
:102AF00024020020A04B000834020020E402002041
:102B0000CDCCCC3D0AD7233CF4470008044800084C
:102B10006C4B00080C4800081448000800002041D5
:102B200067666666184800080000C8421F85EB51BA
:102B3000CDCCCCCC1C480008204800082448000814
:102B400030238DF80F300B20C0F10C01C9B201AB5E
:102B5000184401F09BFC0321644801F097FCC4EB8E
:102B6000C404634B03EB84035A6B002A40F0B48027
:102B700030238DF80F300B20C0F10C01C9B201AB2E
:102B8000184401F083FC02215A4801F07FFC5A49A5
:102B90004A785A4B012098540244594B83FB020354
:102BA0005B1003EB8303D31ADBB24B70002B40F0B6
:102BB000958000220A70F1E4C4EBC4024C4B03EB95
:102BC000820300225A7703E64E4BA3FB0103DB0886
:102BD000184603EB8303A1EB4303013AD2B230332F
:102BE00002F11001694401F80C3C01460029EBD1C7
:102BF00084E60C22FAE7434BA3FB0103DB081846EB
:102C000003EB8303A1EB4303013AD2B2303302F169
:102C10001001694401F80C3C01460029EBD1A7E6FC
:102C20000C22FAE7374BA3FB0103DB08184603EB42
:102C30008303A1EB4303013AD2B2303302F1100116
:102C4000694401F80C3C01460029EBD1D5E60C2281
:102C5000FAE72C4BA3FB0103DB08184603EB8303C5
:102C6000A1EB4303013AD2B2303302F110016944BF
:102C700001F80C3C01460029EBD103E70C22FAE7EE
:102C8000204BA3FB0213DB08194603EB8303A2EBE3
:102C900043030138C0B2303300F110026A4402F835
:102CA0000C3C0A46002AEBD14EE70C20FAE7154B04
:102CB000A3FB0213DB08194603EB8303A2EB4303D8
:102CC0000138C0B2303300F110026A4402F80C3C03
:102CD0000A46002AEBD14FE70C20FAE7064B012207
:102CE0001A705BE4044B00221A7057E42C48000869
:102CF00034020020DC450008240200202C020020C1
:102D000067666666CDCCCCCC024B1888421C1A8014
:102D1000704700BF5400002008B500F0D3FC044AFF
:102D2000B2F888319BB2A2F88631002008BD00BFFE
:102D3000800A00202DE9F043A1B005460F46002689
:102D4000B04646E08021684600F092FC814600F0E3
:102D5000B9FCB9F1000F44D000230CE008F10102E6
:102D600003F18001694411F8801C05F80810013353
:102D70009BB21FFA82F84B4533D24445EED830E07F
:102D8000204AB2F886319BB208F10101134493F84E
:102D9000853005F80830B2F886319BB20133DBB2DA
:102DA000A2F886311FFA81F8164BB3F8862192B249
:102DB000B3F888319BB29A4201D04445E0D84445EB
:102DC00019D90A20FFF7FAFA0A3641F287339E42F0
:102DD00015D8BCB244450ED90A4B93F88A31002B62
:102DE000B0D1084BB3F8862192B2B3F888319BB2C8
:102DF0009A42E4D0D8E7404621B0BDE8F0834FF0D6
:102E0000FF30F9E7800A002070B50E460001C5B218
:102E100000241DE0224BB3F8862192B2B3F888312A
:102E20009BB29A4210D01E4BB3F8862192B2134443
:102E300093F885309D4231D0194AB2F886319BB261
:102E40000133DBB2A2F886310A20FFF7B7FA0A3461
:102E5000B4421FD2124B93F88A31002BDAD0104BB8
:102E6000B3F8862192B2B3F888319BB29A42D1D09E
:102E70000B4BB3F8862192B2134493F885309D42F0
:102E80000AD000F01FFC064AB2F888319BB2A2F8C3
:102E90008631BFE7012070BD0020FCE70020FAE783
:102EA000800A002038B50024094B1C70094B1C60B7
:102EB000094B01221A804FF400752A462146074823
:102EC000FDF710FE2A4621460548FDF70BFE38BDEA
:102ED000EC080020E808002054000020E80600204C
:102EE000E804002010B598B002AC582227492046CB
:102EF000FDF7E8F900238DF807308DF80630244BF4
:102F000001221A70234B059322464FF40071224888
:102F100000F0E4FC041E10DDFFF7FEFEA1B21E4827
:102F200000F096FB41F288310220FFF76DFF50B1AF
:102F3000174B04221A70012003E0154B04221A706B
:102F4000012018B010BD154A4FF40071144800F06C
:102F5000E7FE031E0FDD124A0DF106010DF1070019
:102F600000F050FD01280BD19DF8060040B9084B38
:102F700002221A70E5E7064B04221A700120E0E7EE
:102F8000034B04221A700120DBE700BF74450008E0
:102F9000EC08002030480008E8060020352D000825
:102FA000E8040020F0B58DB00C46002109910A918B
:102FB0000B9140B316461D463CB3174B1B78022BB2
:102FC00025D10990DDB900270696059402AB0CAA1D
:102FD00012E9070083E8070001979DF84830009345
:102FE0002B4600224FF400710C4800F0D7FE002859
:102FF00010DD81B2094800F02BFB002008E0FFF74C
:1030000083FE0746E0E7012002E0012000E0012006
:103010000DB0F0BD0120FBE7EC080020E806002021
:1030200010B58CB0002309930A930B930891ADF867
:103030001E300693002844D0274B1B78022B03D068
:10304000012420460CB010BD0990FFF75DFE034639
:1030500008AA029209AA01920122009200224FF4CA
:1030600000711E4800F02CFF041E2CDDFFF754FEFB
:10307000A1B21A4800F0ECFA41F288310920FFF7BA
:10308000C3FE044608B10124DBE7154A4FF4007182
:10309000144800F045FE002817DD0190114B009305
:1030A00005AB06AA01210DF11E0000F057FF012813
:1030B0000DD1069B002B0CDD059B802BC1D101247B
:1030C000BFE70124BDE70124BBE70124B9E70124E0
:1030D000B7E70124B5E700BFEC080020E8060020B0
:1030E000352D0008E804002008B50A4B1B78022B98
:1030F00001D0012008BD4FF40071074800F0C2FC68
:10310000002805DD81B2044800F0A2FA0020F1E7B2
:103110000120EFE7EC080020E8060020344B1B7884
:10312000022B15D1334B93F88A3143B9314BB3F8A5
:10313000862192B2B3F888319BB29A4208D02D4BC7
:10314000B3F8862192B2134493F88530302B00D027
:10315000704730B58FB0284A4FF40071274800F00F
:10316000DFFD002801DC0FB030BD00238DF81C30DE
:1031700008938DF81D30ADF81E300B930C930D9312
:1031800009930A9304901D4B03930AAB029309AB76
:1031900001930BAB00930DF11E030DF11D0208A965
:1031A00007A800F074FC0128DDD1089B012B10D08A
:1031B000134B1C68002CD6D00B9D0EAB13E90700F7
:1031C00000F0A1FDBDF82830099A81B22846A04739
:1031D000C9E7BDF81E204FF400710A4800F051FE07
:1031E000011EE5DD89B2074800F032FAE0E700BFD2
:1031F000EC080020800A0020352D0008E80400209B
:10320000E8080020E8060020014B1860704700BF66
:10321000E8080020014B1878704700BFEC08002038
:103220002DE9F04F91B0FFF779FFFFF7F3FF022888
:1032300000F09D80FFF7EEFF022800F09B8011B0A8
:10324000BDE8F08F534B00220C995A5408F1010845
:103250005FFA88F8B8F1040FECD8CDF830804D4B08
:1032600013F80830002BF1D0C8EBC8034A4D05EB2A
:1032700083052B7F0E936A7F0F926B6A47490D93EC
:103280001846FEF74BF8FEF737FC8246D5F820903B
:1032900043494846FEF742F8FEF72EFC0746D5F8AC
:1032A00028B03F495846FEF739F8FEF725FC04469A
:1032B000EE6A3A493046FEF731F8FEF71DFC95F804
:1032C00030306A6B0B920A93364D85FB0032C31780
:1032D000C3EBA20303EB8303A0EB4300099030464A
:1032E000FEF70AFC0890304E86FB0432E317C3EB6E
:1032F0006213642202FB134407945846FEF7FCFB5A
:10330000069086FB0736FB17C3EB6613642202FBAD
:10331000137305934846FEF7EFFB049085FB0A35CF
:103320004FEAEA73C3EBA50505EB8505AAEB450556
:1033300003950D98FEF7E0FB02900F9A01920E9B09
:1033400000931A4B1A4A4FF480711A48FCF774FF25
:10335000431EFE2B3FF676AF0023009382B2154941
:103360001548FFF71FFE0120FFF76CF86AE74FF0E2
:1033700000086FE7FFF72CF80446104B1B68C31AD0
:1033800047F22F5293427FF65AAFFFF7ADFE0B4B39
:103390001C6054E72C020020340200200000204171
:1033A0000000C842676666661F85EB51304800081A
:1033B00044480008E8030020F8480008E40300201F
:1033C0002DE9F84381460C4690461F46002609E049
:1033D000B4F882309BB218F80620E254A4F8825068
:1033E0000136B6B2BE4218D2B4F88250ADB2013541
:1033F00005F07F05B4F880C01FFA8CFCAC45E7D11E
:1034000094F88430002BF5D1012284F8842040F216
:103410002771484600F056FFECE794F884300BB172
:10342000BDE8F883012284F8842040F227714846E1
:1034300000F048FFF4E738B505460C4640F2255148
:1034400000F062FF98B1AB88D9B2B4F888319BB272
:103450000133DBB2B4F8862192B29A4207D0B4F8B5
:10346000882192B2224482F88510A4F8883140F273
:103470002441284600F048FFB0B12B88AB88B4F84F
:10348000882192B2B4F886319BB29A4228D3B4F81C
:1034900088319BB2B4F8862192B29B1A9BB2A4F8F1
:1034A0008C31012384F88A3140F22771284600F0DC
:1034B0002BFFA0B1B4F8802092B2B4F882309BB256
:1034C0009A421AD0B4F880309BB2E35CAB80B4F877
:1034D00080309BB2013303F07F03A4F8803038BD05
:1034E000B4F888319BB2B4F8862192B29B1A03F5E6
:1034F00080739BB2A4F88C31D3E7002240F227718D
:10350000284600F0DFFE002384F88430E7E700005F
:1035100070B586B0012144F2040000F047FE4FF47C
:103520000073ADF8143003238DF8163018238DF88E
:10353000173005AD214C2946204600F079FD4FF4A7
:103540008063ADF8143004238DF8173029462046E7
:1035500000F06EFD4FF4165301930025ADF80850AE
:10356000ADF80A50ADF80C50ADF810500C23ADF882
:103570000E30134E01A9304600F034FE25238DF89D
:10358000003001248DF801408DF802508DF8034081
:10359000684600F01DFD224640F22551304600F0FD
:1035A00091FE224640F22441304600F08BFE214637
:1035B000304600F079FE06B070BD00BF0008014043
:1035C00000380140844600B309B3002011E0114ADD
:1035D000B2F886319BB2134493F885300CF8003072
:1035E000B2F886319BB20133DBB2A2F886310130EA
:1035F00080B2084BB3F8862192B2B3F888319BB2FF
:103600009A4205D08842E2D37047002070470846AE
:10361000704700BF100C0020034B002283F88A2162
:10362000A3F88C21704700BF100C002010B5044691
:10363000FDF7D8FA83B203B910BD22460249034808
:10364000FFF7BEFEF8E700BF800A002000440040FC
:1036500008B1024601B9704708B50B460249034854
:10366000FFF7AEFE08BD00BF800A00200044004006
:10367000844600B309B3002011E0114AB2F8863144
:103680009BB2134493F885300CF80030B2F88631C1
:103690009BB20133DBB2A2F88631013080B2084B15
:1036A000B3F8862192B2B3F888319BB29A4205D022
:1036B0008842E2D37047002070470846704700BF39
:1036C000800A0020034B002283F88A21A3F88C2172
:1036D000704700BF800A002070B586B00121082025
:1036E00000F064FD01214FF4802000F06DFD4FF4E7
:1036F0008063ADF8143003238DF8163018238DF84D
:10370000173005AD214C2946204600F091FC4FF4BE
:103710000063ADF8143004238DF817302946204695
:1037200000F086FC4FF4E13301930025ADF808501A
:10373000ADF80A50ADF80C50ADF810500C23ADF8B0
:103740000E30134E01A9304600F04CFD27238DF8B2
:10375000003001248DF801408DF802508DF80340AF
:10376000684600F035FC224640F22551304600F014
:10377000A9FD224640F22441304600F0A3FD214637
:10378000304600F091FD06B070BD00BF000C014056
:103790000048004010B50446FDF724FA83B203B98F
:1037A00010BD224602490348FFF70AFEF8E700BFB2
:1037B000F00800200048004008B502490248FFF721
:1037C0003AFE08BD100C00200038014008B502493F
:1037D0000248FFF730FE08BD800A00200044004088
:1037E00008B502490248FFF726FE08BDF008002090
:1037F00000480040D9B108B513460A46CBB10228AB
:1038000009D003280DD0012815D10C490C48FFF729
:10381000D7FD00200EE00B490B48FFF7D1FD00203B
:1038200008E00A490A48FFF7CBFD002002E001202A
:103830007047012008BD0120FCE700BF100C0020EC
:1038400000380140800A002000440040F0080020B9
:103850000048004070B50446037A032B21D0042BA6
:1038600021D0002504F10C0393E8070000F04BFA87
:1038700002300544E37EC3B9236C3BB304F140033B
:1038800093E8070000F03FFA02300544E36C0BB305
:103890004C3494E8070000F036FA0230054428461C
:1038A00070BD0C25DEE70A25DCE704F1240393E86C
:1038B000070000F028FA861C04F1300393E80700A3
:1038C00000F021FA064402363544D5E7A36C002BFC
:1038D000D4D1DBE7636D002BDAD1E0E72DE9F041CD
:1038E00082B006460F46144601901046FFF7B2FF1D
:1038F000804600F06DF9B8427DDC0025102101A85A
:1039000000F094F94146019800F020F9019B03442E
:103910000193237A042B41D001AF3849384600F097
:10392000A2F90321384600F081F9A37E63F3410533
:10393000E37E003B18BF012363F3820515F0040FFB
:1039400007D094F83D3063F3C40594F83C3063F33A
:103950004515236C63B345F08005E36C63B345F014
:103960004005EDB201AF2946384600F05FF9218BE2
:10397000384600F061F904F10C030ECB384600F034
:1039800086F9E37EE3B915F0800F26D115F0400FDC
:103990002AD10198801B02B0BDE8F08101AF18491F
:1039A000384600F060F90421384600F03FF9BCE7E2
:1039B000A36C002BCFD1D0E7636D002BCFD1D0E724
:1039C00004F124030ECB384600F061F904F1300312
:1039D0000ECB384600F05BF9D5E704F140030ECB7F
:1039E00001A800F054F9D1E74C3494E80E0001A886
:1039F00000F04DF9CDE76FF00100CCE72449000855
:103A00001C49000870B582B005460C46019201A819
:103A100000F006F900F0F003202B02D0002002B0E5
:103A200070BD6946019800F0E7F8019B03440193DB
:103A3000009B012BF3DD01AE304600F0F1F800F001
:103A400001002870304600F0EBF820700120E6E716
:103A500010B582B00190012911DD0446002362F304
:103A60000713194601A800F0E1F80021019800F0C1
:103A70006DF8019B18440190001B02B010BD6FF05F
:103A80000100FAE708B50C22FFF7E2FF08BD2DE9B7
:103A9000F04182B080460D4616461F4600240B9B1F
:103AA0000193009401A800F0BBF860F3070400F054
:103AB000F00CBCF1300F04D00024204602B0BDE869
:103AC000F081C4F3C00388F80030C4F341032B60D5
:103AD000C4F3000434706946019800F08DF8044680
:103AE000019E06440196009B1E44324601A9089897
:103AF00000F0EFF80028E0D0019BF31A002BDCDB8C
:103B00002B68002B07DC019BF61A0A9A1660099AAB
:103B100013600124D1E701A800F07AF83880F2E7B9
:103B20008446084600238B420CDA30B4064C2268E7
:103B3000551C256012788CF8002001338342F5DB98
:103B400030BC7047704700BFA00D002010B5044680
:103B50004FF0000C09E001F17F0E12E00CF10100C2
:103B600004F80C307F2A13DD84464A4201F07F03BB
:103B700002F07F0258BF5342DBB20A468E4600294C
:103B8000E9DB4FEAEE117F2AE8DD43F08003E5E749
:103B900010BDF0B583B007460D4600240C60012629
:103BA0000134042C11DC01210DF10700B847012874
:103BB0000BD12B689DF8072002F07F0106FB013333
:103BC0002B60F60112F0800FEAD1204603B0F0BD61
:103BD000431C7F2B01DC02307047B3F5804F01DAC4
:103BE00003307047034A934201DC043070470530CC
:103BF000704700BFFEFF1F0008B5034B1860034865
:103C0000FFF7C7FF08BD00BFA00D0020213B000843
:103C1000036819785A780233036002EB0120704779
:103C20000346026812F8010B1A60704703681970A6
:103C300003680133036070470B46002910DB0268FC
:103C4000C3F3072313700268531C03604B42C9B2CD
:103C5000DBB258BF594251700368013303607047AB
:103C600001F1FF03EBE770B504460E460846FCF78A
:103C7000B9FF054601462046FFF7DEFF2A463146DA
:103C80002068FCF71FFB23682B44236070BD30B510
:103C900085B0044604A800E90E00002A05DC01995D
:103CA00091B12046FFF7DFFF0CE015461146204694
:103CB000FFF7C2FF2A4603992068FCF703FB23683D
:103CC0002B44236005B030BD00212046FFF7B4FF30
:103CD000F8E770B505460B68D31A012B03DC00200A
:103CE00000232B6070BD0C4616460846FFF790FF78
:103CF000686023681844B04203D8AB60206001209C
:103D0000EEE70020ECE700B585B004AB03E907005F
:103D100020B1FCF767FF05B05DF804FB0298FAE7F5
:103D200070B582B005460E4614460023019301216A
:103D30009047012816D101A92046FFF72AFF0199D3
:103D4000681CFFF703FF013001990B18B3420CDC2C
:103D500021B12844A047019B984209D12878000945
:103D600002B070BD4FF0FF30FAE74FF0FF30F7E7D9
:103D70004FF0FF30F4E710B584B004460DF1040CA9
:103D80008CE80E009CE80700FFF7BDFF831C069A35
:103D90009818002C00DD023004B010BD2DE9F0476A
:103DA00084B006460F4692461C46DDF848900390C4
:103DB000CDF800900EAB0ECB2046FFF7DCFF80461F
:103DC000FFF706FFB84230DC0025032363F3071535
:103DD0006AF3C30564F342059DF8303063F30005D0
:103DE00003AFE9B23846FFF721FF41460398FFF7DA
:103DF000ADFE039B034403930EAB0ECB3846FFF797
:103E000046FF002C0BDC4A4611990398FCF75AFA3E
:103E1000039A4A440392901B04B0BDE8F087BDF8B2
:103E200034103846FFF708FFEDE76FF00100F3E7C5
:103E300030B583B00446019003291FDD002062F3F2
:103E4000071063F3C300062A14BF0022012262F3A5
:103E5000420001ADC1B22846FFF7E8FE02210198F9
:103E6000FFF774FE019B03440193BDF81810284628
:103E7000FFF7E2FE0198001B03B030BD6FF00100B8
:103E8000FAE700B583B0009200230422FFF7D0FFC9
:103E900003B05DF804FBF8B506460F460225002482
:103EA0000AE004EB440307EB830393E80700FFF702
:103EB0002AFF033005440134B442F2DB2846F8BD42
:103EC0002DE9F04F85B007468946924601930E9C36
:103ED0000F9D109E039029462046FFF7DCFF834686
:103EE000FFF776FE484536DC4FF00008082363F301
:103EF00007186AF3C308012363F342080DF10C09A4
:103F00005FFA88F14846FFF791FE59460398FFF79C
:103F10001DFE039B0344039301994846FFF78CFE63
:103F20004FF0000810E008EB480305EB83030DF1A8
:103F30000C090ECB4846FFF7AAFE16F82810484693
:103F4000FFF774FE08F10108A045ECDB0398C01BE5
:103F500005B0BDE8F08F6FF00100F9E72DE9F04101
:103F600082B080460D4614461E46089B019301A868
:103F7000FFF756FE00F0F003902B03D0002002B0B4
:103F8000BDE8F08169460198FFF736FE019F0744BE
:103F90000197009B1F44012BF1DD01A8FFF738FEBC
:103FA000A8F8000000232360019BBB420BD22368CA
:103FB000AB420ADC01A8FFF733FE2268531C2360E2
:103FC00046F82200F0E70120D9E74FF0FF30D6E7AE
:103FD000C378F3B1144BDB68DB43C3F30223C3F1B3
:103FE000040C0F21D940427802FA0CF283780B407E
:103FF000134302781B01DBB20C490A4482F80033F8
:10400000037803F01F005B090122824041F823205E
:104010007047037803F01F015B0901228A402033B7
:10402000024941F82320704700ED00E000E100E084
:1040300030B5CB7803F00F02964613F0100F03D083
:1040400091F802E04EEA020E0B78FBB105680023FE
:1040500001E042610133072B17D801229A40B1F8E1
:1040600000C032EA0C0CF5D19C004FF00F0C0CFA9A
:1040700004FC25EA0C050EFA04F42543CC78282C20
:10408000E7D0482CE6D10261E4E705600B88FF2BFE
:1040900025D94568002303E0CC78482C1CD0013397
:1040A000072B1BD803F1080C012202FA0CF2B1F81D
:1040B00000C032EA0C0CF2D19C004FF00F0C0CFA4D
:1040C00004FC25EA0C0C0EFA04F444EA0C05CC7846
:1040D000282CE1D14261DFE70261E0E7456030BDB5
:1040E000C368194201D00120704700207047016168
:1040F000704741617047000010B4274B5B6803F0C4
:104100000C03042B25D0082B26D0002B41D1234BA8
:104110000360214A5368C3F30313214CE15C036835
:10412000CB4043605168C1F30221615C23FA01F185
:1041300081605168C1F3C221615CCB40C3605268A9
:10414000C2F3813217498A5CB3FBF2F3036110BCFE
:104150007047124B0360DCE70F4A53685268C3F3A1
:104160008343023312F4803F04D10F4A02FB03F36E
:104170000360CEE7084A526812F4003F04D00A4AAE
:1041800002FB03F30360C4E7044A02FB03F303608A
:10419000BFE7024B0360BCE70010024000127A0048
:1041A000AC4B0008A84B000800093D0021B1054AAE
:1041B0009369034393617047024A936923EA0003BA
:1041C000936170470010024021B1054AD36903434F
:1041D000D3617047024AD36923EA0003D361704771
:1041E0000010024030B587B004460D46038A9BB2EA
:1041F000CA8823F440531343038283899BB289887E
:1042000028896A8901430A4323F4B05323F00C033D
:104210001343A381A38A9BB2AA8923F44073134357
:10422000A38201A8FFF768FF1D4B9C4224D0039B8B
:10423000A28912F4004F21D103EB830303EB830324
:104240002A689200B3FBF2F3164AA2FB031252094A
:104250001101642002FB1033A28912F4004F16D121
:104260001B0132330F4AA2FB0323C3F343130B4357
:104270009BB2238107B030BD049BD9E703EB8303D6
:1042800003EB83032A685200B3FBF2F3DCE7DB00A5
:104290003233044AA2FB0323C3F342130B43E7E781
:1042A000003801401F85EB5129B183899BB243F44B
:1042B00000538381704783899BB223F400539BB2E0
:1042C00083817047C1F3421C01F01F0101238B4021
:1042D000BCF1010F08D0BCF1020F07D014303AB185
:1042E00002681343036070470C30F8E71030F6E7BC
:1042F000026822EA0303036070470388194201D071
:104300000120704700207047C1F3421201F01F0CDA
:10431000012303FA0CF3012A0FD0022A11D0828A5A
:1043200092B21340090A012202FA01F1028892B204
:104330000A4053B15AB900207047828992B21340A3
:10434000F0E7028A92B21340ECE7002070470120A8
:104350007047000030B583B001210420FFF726FF2D
:104360004FF40065ADF8045003238DF80630102398
:104370008DF80730054C01A92046FFF759FE294664
:104380002046FFF7B6FE03B030BD00BF0008014075
:1043900030B583B001210820FFF708FF2025ADF8D4
:1043A000045003238DF8063010238DF80730054C98
:1043B00001A92046FFF73CFE29462046FFF799FE5B
:1043C00003B030BD000C014008B5012805D04FF402
:1043D00000610548FFF78DFE08BD4FF400610248FB
:1043E000FFF785FEF8E700BF0008014008B5012887
:1043F00004D020210448FFF77CFE08BD202102489C
:10440000FFF775FEF9E700BF000C014038B590B327
:104410000C46054611B90125284638BD0120FFF795
:10442000D3FF224629460120FFF7E4F90022134B6F
:1044300093F8843003F0FF054BB1114B9A4201D839
:104440000132F4E70020FFF7BFFF0225E4E7002474
:1044500040210C48FFF751FF48B90B4B9C4201D853
:104460000134F5E70020FFF7AFFF0225D4E7002075
:10447000FFF7AAFFD0E70125CEE700BF100C002010
:104480003F420F00003801409F86010038B590B3CD
:104490000C46054611B90125284638BD0120FFF715
:1044A000A5FF224629460320FFF7A4F90022134B5B
:1044B00093F8843003F0FF054BB1114B9A4201D8B9
:1044C0000132F4E70020FFF791FF0225E4E7002422
:1044D00040210C48FFF711FF48B90B4B9C4201D813
:1044E0000134F5E70020FFF781FF0225D4E7002023
:1044F000FFF77CFFD0E70125CEE700BFF0080020E2
:104500003F420F00004800409F8601000C4885464E
:104510000C480D490D4A002302E0D458C45004331E
:10452000C4188C42F9D30A4A0A4C002301E01360F4
:104530000432A242FBD3FDF715FCFDF771FBFEE749
:10454000005000200000002058000020CC4B000844
:1045500058000020A40D0020FEE70000F8B500BFC1
:10456000F8BC08BC9E467047F8B500BFF8BC08BC54
:044570009E467047AC
:104574004D515443000000000400000000000000FE
:1045840000000000000000003C0001004D515457A1
:104594000000000000000000000000000000000017
:1045A4000000000000000000000000000000000007
:1045B40000000000000000000000000000000000F7
:1045C40000000000000000005B4D5154545D207455
:1045D4006F7069633A2000000D0A00005B55535266
:1045E4002D4B355D20696E6974204641494C0D0A96
:1045F400000000005B4D5154545D20636F6E6E6586
:10460400637465640D0A00002F4D756C74697365DD
:104614006E736F722F53544D3332454C455F47616F
:1046240074657761792F66756E6300005B4D515434
:10463400545D207265636F6E6E656374696E672E78
:104644002E2E0D0A000000005B4D5154545D207263
:1046540065636F6E6E65637465640D0A0000000027
:104664002B6F6B002B455252000000002B2B2B00AC
:104674006100000041542B454E544D005B5553528C
:104684004B355D20656E746572204154206D6F64F6
:1046940065204641494C0D0A0000000041542B5648
:1046A400455200005B5553524B355D2046572076EA
:1046B40065723A200000000041542B4D4143000034
:1046C4005B5553524B355D204D41433A2000000069
:1046D40041542B57414E4E3D5354415449432C3180
:1046E40039322E3136382E33312E3234302C3235A5
:1046F400352E3235352E3235352E302C3139322E99
:104704003136382E33312E31000000005B555352C0
:104714004B355D207365742073746174696320493B
:1047240050204641494C0D0A000000003139322E18
:104734003136382E33312E323133000041542B536D
:104744004F434B3D544350432C25732C2575000097
:104754005B5553524B355D20736574205443502090
:10476400636C69656E742072656D6F746520464173
:10477400494C0D0A000000005B5553524B355D2037
:10478400696E6974204F4B0D0A0000005B4D4F4465
:104794004255535D2073656E643A20005B434B546D
:1047A4005D2073656E64206661696C0D0A0000000B
:1047B4005B4D4F444255535D20726563763A200049
:1047C4005B434B545D207265637620746F6F207376
:1047D400686F72743A2000005B434B545D2072652D
:1047E40063762074696D656F75740D0A00000000AE
:1047F4005B50415253455D206465763D00000000E6
:1048040020616464723D00002073773D0000000065
:1048140020563D0020413D0020573D0020543D00DE
:104824002070663D0000000020453D0053544D3388
:1048340032454C455F47617465776179000000003B
:104844007B226465766364223A222573222C2264D7
:10485400657674797065223A22656C656374726951
:10486400636974795F73656E736F72222C226E6F45
:1048740064656964223A22656C73656E736F725F56
:104884002575222C2264617461223A7B227377227B
:104894003A25752C22766F6C74616765223A25641B
:1048A4002E253031642C2263757272656E74223A3F
:1048B40025642E253032642C22706F776572223A7B
:1048C40025642E253032642C2274656D70223A25BD
:1048D400642E253031642C22666163746F72223A2F
:1048E40025752C22656E65726779223A256C757D73
:1048F4007D0000002F4D756C746973656E736F7263
:104904002F53544D3332454C455F4761746577618D
:10491400792F6461746100004D515454000000000B
:104924004D51497364700000232D302B200000008A
:10493400686C4C0065666745464700003031323389
:104944003435363738394142434445460000000087
:1049540030313233343536373839616263646566F1
:104964000000000000C0C101C30302C2C60607C79D
:1049740005C5C404CC0C0DCD0FCFCE0E0ACACB0B8B
:10498400C90908C8D81819D91BDBDA1A1EDEDF1FBB
:10499400DD1D1CDC14D4D515D71716D6D21213D3AB
:1049A40011D1D010F03031F133F3F23236F6F7375B
:1049B400F53534F43CFCFD3DFF3F3EFEFA3A3BFB4B
:1049C40039F9F83828E8E929EB2B2AEAEE2E2FEFFB
:1049D4002DEDEC2CE42425E527E7E62622E2E3236B
:1049E400E12120E0A06061A163A3A26266A6A7679B
:1049F400A56564A46CACAD6DAF6F6EAEAA6A6BAB0B
:104A040069A9A86878B8B979BB7B7ABABE7E7FBF3A
:104A14007DBDBC7CB47475B577B7B67672B2B3732A
:104A2400B17170B0509091519353529296565797DA
:104A3400559594549C5C5D9D5F9F9E5E5A9A9B5BCA
:104A440099595898884849894B8B8A4A4E8E8F4F7A
:104A54008D4D4C8C448485458747468682424383EA
:104A64004181804000C1814001C0804101C080413A
:104A740000C1814001C0804100C1814000C181402A
:104A840001C0804101C0804100C1814000C181401A
:104A940001C0804100C1814001C0804101C080410A
:104AA40000C1814001C0804100C1814000C18140FA
:104AB40001C0804100C1814001C0804101C08041EA
:104AC40000C1814000C1814001C0804101C08041DA
:104AD40000C1814001C0804100C1814000C18140CA
:104AE40001C0804101C0804100C1814000C18140BA
:104AF40001C0804100C1814001C0804101C08041AA
:104B040000C1814000C1814001C0804101C0804199
:104B140000C1814001C0804100C1814000C1814089
:104B240001C0804100C1814001C0804101C0804179
:104B340000C1814001C0804100C1814000C1814069
:104B440001C0804101C0804100C1814000C1814059
:104B540001C0804100C1814001C0804101C0804149
:104B640000C1814001000200303132333435363720
:104B74003839000030313233343536373839414230
:104B84004344454600000000303132333435363773
:104B94003839414243444546000000002122238322
:104BA400960000000204060800000000010203044D
:084BB4000102030406070809D1
:084BBC0008B7FF7F01000000B3
:044BC400990100084B
:044BC800710100086F
:104BCC0004000020000000007C000020E400002015
:104BDC004C0100200000000000000000000000005C
:104BEC0000000000000000000000000000000000B9
:104BFC0000000000000000000000000000000000A9
:104C0C000000000000000000000000000000000098
:084C1C0000A24A04010000009F
:040000050800450D9D
:00000001FF
